{
  "_format": "hh-sol-artifact-1",
  "contractName": "RayzoAuditLayer",
  "sourceName": "contracts/RayzoAuditLayer.sol",
  "abi": [
    {
      "inputs": [],
      "stateMutability": "nonpayable",
      "type": "constructor"
    },
    {
      "inputs": [],
      "name": "AccessControlBadConfirmation",
      "type": "error"
    },
    {
      "inputs": [
        {
          "internalType": "address",
          "name": "account",
          "type": "address"
        },
        {
          "internalType": "bytes32",
          "name": "neededRole",
          "type": "bytes32"
        }
      ],
      "name": "AccessControlUnauthorizedAccount",
      "type": "error"
    },
    {
      "anonymous": false,
      "inputs": [
        {
          "indexed": false,
          "internalType": "uint256",
          "name": "reportId",
          "type": "uint256"
        },
        {
          "indexed": false,
          "internalType": "bytes32",
          "name": "reportHash",
          "type": "bytes32"
        },
        {
          "indexed": false,
          "internalType": "uint256",
          "name": "maxProbability",
          "type": "uint256"
        },
        {
          "indexed": false,
          "internalType": "string",
          "name": "confidenceLevel",
          "type": "string"
        },
        {
          "indexed": false,
          "internalType": "string",
          "name": "priority",
          "type": "string"
        },
        {
          "indexed": false,
          "internalType": "uint256",
          "name": "timestamp",
          "type": "uint256"
        },
        {
          "indexed": false,
          "internalType": "address",
          "name": "submittedBy",
          "type": "address"
        }
      ],
      "name": "ReportLogged",
      "type": "event"
    },
    {
      "anonymous": false,
      "inputs": [
        {
          "indexed": true,
          "internalType": "bytes32",
          "name": "role",
          "type": "bytes32"
        },
        {
          "indexed": true,
          "internalType": "bytes32",
          "name": "previousAdminRole",
          "type": "bytes32"
        },
        {
          "indexed": true,
          "internalType": "bytes32",
          "name": "newAdminRole",
          "type": "bytes32"
        }
      ],
      "name": "RoleAdminChanged",
      "type": "event"
    },
    {
      "anonymous": false,
      "inputs": [
        {
          "indexed": true,
          "internalType": "bytes32",
          "name": "role",
          "type": "bytes32"
        },
        {
          "indexed": true,
          "internalType": "address",
          "name": "account",
          "type": "address"
        },
        {
          "indexed": true,
          "internalType": "address",
          "name": "sender",
          "type": "address"
        }
      ],
      "name": "RoleGranted",
      "type": "event"
    },
    {
      "anonymous": false,
      "inputs": [
        {
          "indexed": true,
          "internalType": "bytes32",
          "name": "role",
          "type": "bytes32"
        },
        {
          "indexed": true,
          "internalType": "address",
          "name": "account",
          "type": "address"
        },
        {
          "indexed": true,
          "internalType": "address",
          "name": "sender",
          "type": "address"
        }
      ],
      "name": "RoleRevoked",
      "type": "event"
    },
    {
      "inputs": [],
      "name": "DEFAULT_ADMIN_ROLE",
      "outputs": [
        {
          "internalType": "bytes32",
          "name": "",
          "type": "bytes32"
        }
      ],
      "stateMutability": "view",
      "type": "function"
    },
    {
      "inputs": [],
      "name": "HOSPITAL_ROLE",
      "outputs": [
        {
          "internalType": "bytes32",
          "name": "",
          "type": "bytes32"
        }
      ],
      "stateMutability": "view",
      "type": "function"
    },
    {
      "inputs": [
        {
          "internalType": "bytes32",
          "name": "role",
          "type": "bytes32"
        }
      ],
      "name": "getRoleAdmin",
      "outputs": [
        {
          "internalType": "bytes32",
          "name": "",
          "type": "bytes32"
        }
      ],
      "stateMutability": "view",
      "type": "function"
    },
    {
      "inputs": [
        {
          "internalType": "address",
          "name": "hospital",
          "type": "address"
        }
      ],
      "name": "grantHospitalRole",
      "outputs": [],
      "stateMutability": "nonpayable",
      "type": "function"
    },
    {
      "inputs": [
        {
          "internalType": "bytes32",
          "name": "role",
          "type": "bytes32"
        },
        {
          "internalType": "address",
          "name": "account",
          "type": "address"
        }
      ],
      "name": "grantRole",
      "outputs": [],
      "stateMutability": "nonpayable",
      "type": "function"
    },
    {
      "inputs": [
        {
          "internalType": "bytes32",
          "name": "role",
          "type": "bytes32"
        },
        {
          "internalType": "address",
          "name": "account",
          "type": "address"
        }
      ],
      "name": "hasRole",
      "outputs": [
        {
          "internalType": "bool",
          "name": "",
          "type": "bool"
        }
      ],
      "stateMutability": "view",
      "type": "function"
    },
    {
      "inputs": [
        {
          "internalType": "bytes32",
          "name": "_reportHash",
          "type": "bytes32"
        },
        {
          "internalType": "uint256",
          "name": "_maxProbability",
          "type": "uint256"
        },
        {
          "internalType": "string",
          "name": "_confidenceLevel",
          "type": "string"
        },
        {
          "internalType": "string",
          "name": "_priority",
          "type": "string"
        }
      ],
      "name": "logReport",
      "outputs": [],
      "stateMutability": "nonpayable",
      "type": "function"
    },
    {
      "inputs": [
        {
          "internalType": "bytes32",
          "name": "role",
          "type": "bytes32"
        },
        {
          "internalType": "address",
          "name": "callerConfirmation",
          "type": "address"
        }
      ],
      "name": "renounceRole",
      "outputs": [],
      "stateMutability": "nonpayable",
      "type": "function"
    },
    {
      "inputs": [],
      "name": "reportCounter",
      "outputs": [
        {
          "internalType": "uint256",
          "name": "",
          "type": "uint256"
        }
      ],
      "stateMutability": "view",
      "type": "function"
    },
    {
      "inputs": [
        {
          "internalType": "uint256",
          "name": "",
          "type": "uint256"
        }
      ],
      "name": "reports",
      "outputs": [
        {
          "internalType": "bytes32",
          "name": "reportHash",
          "type": "bytes32"
        },
        {
          "internalType": "uint256",
          "name": "maxProbability",
          "type": "uint256"
        },
        {
          "internalType": "string",
          "name": "confidenceLevel",
          "type": "string"
        },
        {
          "internalType": "string",
          "name": "priority",
          "type": "string"
        },
        {
          "internalType": "uint256",
          "name": "timestamp",
          "type": "uint256"
        },
        {
          "internalType": "address",
          "name": "submittedBy",
          "type": "address"
        }
      ],
      "stateMutability": "view",
      "type": "function"
    },
    {
      "inputs": [
        {
          "internalType": "bytes32",
          "name": "role",
          "type": "bytes32"
        },
        {
          "internalType": "address",
          "name": "account",
          "type": "address"
        }
      ],
      "name": "revokeRole",
      "outputs": [],
      "stateMutability": "nonpayable",
      "type": "function"
    },
    {
      "inputs": [
        {
          "internalType": "bytes4",
          "name": "interfaceId",
          "type": "bytes4"
        }
      ],
      "name": "supportsInterface",
      "outputs": [
        {
          "internalType": "bool",
          "name": "",
          "type": "bool"
        }
      ],
      "stateMutability": "view",
      "type": "function"
    }
  ],
  "bytecode": "0x608060405234801561001057600080fd5b506100246000801b3361002a60201b60201c565b50610199565b600061003c838361012760201b60201c565b61011c57600160008085815260200190815260200160002060000160008473ffffffffffffffffffffffffffffffffffffffff1673ffffffffffffffffffffffffffffffffffffffff16815260200190815260200160002060006101000a81548160ff0219169083151502179055506100b961019160201b60201c565b73ffffffffffffffffffffffffffffffffffffffff168273ffffffffffffffffffffffffffffffffffffffff16847f2f8788117e7eff1d82e926ec794901d17c78024a50270940304540a733656f0d60405160405180910390a460019050610121565b600090505b92915050565b600080600084815260200190815260200160002060000160008373ffffffffffffffffffffffffffffffffffffffff1673ffffffffffffffffffffffffffffffffffffffff16815260200190815260200160002060009054906101000a900460ff16905092915050565b600033905090565b6113f9806101a86000396000f3fe608060405234801561001057600080fd5b50600436106100b45760003560e01c806391d148541161007157806391d1485414610189578063a217fddf146101b9578063b9bc38f2146101d7578063c942adf7146101f5578063d547741f1461022a578063f6ba667814610246576100b4565b806301ffc9a7146100b9578063248a9ca3146100e95780632f2ff15d1461011957806332962e861461013557806336568abe146101515780637ee756f21461016d575b600080fd5b6100d360048036038101906100ce9190610a9e565b610264565b6040516100e09190610ae6565b60405180910390f35b61010360048036038101906100fe9190610b37565b6102de565b6040516101109190610b73565b60405180910390f35b610133600480360381019061012e9190610bec565b6102fd565b005b61014f600480360381019061014a9190610da8565b61031f565b005b61016b60048036038101906101669190610bec565b610499565b005b61018760048036038101906101829190610e47565b610514565b005b6101a3600480360381019061019e9190610bec565b61054f565b6040516101b09190610ae6565b60405180910390f35b6101c16105b9565b6040516101ce9190610b73565b60405180910390f35b6101df6105c0565b6040516101ec9190610e83565b60405180910390f35b61020f600480360381019061020a9190610e9e565b6105c6565b60405161022196959493929190610f59565b60405180910390f35b610244600480360381019061023f9190610bec565b610732565b005b61024e610754565b60405161025b9190610b73565b60405180910390f35b60007f7965db0b000000000000000000000000000000000000000000000000000000007bffffffffffffffffffffffffffffffffffffffffffffffffffffffff1916827bffffffffffffffffffffffffffffffffffffffffffffffffffffffff191614806102d757506102d682610778565b5b9050919050565b6000806000838152602001908152602001600020600101549050919050565b610306826102de565b61030f816107e2565b61031983836107f6565b50505050565b7fc8f5b4140cca307cd927e59cbeea8291bffeee228fc677f0fa059aef7b4dd8d5610349816107e2565b6002600081548092919061035c90610ff7565b91905055506040518060c001604052808681526020018581526020018481526020018381526020014281526020013373ffffffffffffffffffffffffffffffffffffffff16815250600160006002548152602001908152602001600020600082015181600001556020820151816001015560408201518160020190816103e2919061124b565b5060608201518160030190816103f8919061124b565b506080820151816004015560a08201518160050160006101000a81548173ffffffffffffffffffffffffffffffffffffffff021916908373ffffffffffffffffffffffffffffffffffffffff1602179055509050507fa320073fd3423017709eb988556b7b87f12536e46749ae8200140b9302b34a8f60025486868686423360405161048a979695949392919061131d565b60405180910390a15050505050565b6104a16108e7565b73ffffffffffffffffffffffffffffffffffffffff168173ffffffffffffffffffffffffffffffffffffffff1614610505576040517f6697b23200000000000000000000000000000000000000000000000000000000815260040160405180910390fd5b61050f82826108ef565b505050565b6000801b610521816107e2565b61054b7fc8f5b4140cca307cd927e59cbeea8291bffeee228fc677f0fa059aef7b4dd8d5836102fd565b5050565b600080600084815260200190815260200160002060000160008373ffffffffffffffffffffffffffffffffffffffff1673ffffffffffffffffffffffffffffffffffffffff16815260200190815260200160002060009054906101000a900460ff16905092915050565b6000801b81565b60025481565b60016020528060005260406000206000915090508060000154908060010154908060020180546105f59061106e565b80601f01602080910402602001604051908101604052809291908181526020018280546106219061106e565b801561066e5780601f106106435761010080835404028352916020019161066e565b820191906000526020600020905b81548152906001019060200180831161065157829003601f168201915b5050505050908060030180546106839061106e565b80601f01602080910402602001604051908101604052809291908181526020018280546106af9061106e565b80156106fc5780601f106106d1576101008083540402835291602001916106fc565b820191906000526020600020905b8154815290600101906020018083116106df57829003601f168201915b5050505050908060040154908060050160009054906101000a900473ffffffffffffffffffffffffffffffffffffffff16905086565b61073b826102de565b610744816107e2565b61074e83836108ef565b50505050565b7fc8f5b4140cca307cd927e59cbeea8291bffeee228fc677f0fa059aef7b4dd8d581565b60007f01ffc9a7000000000000000000000000000000000000000000000000000000007bffffffffffffffffffffffffffffffffffffffffffffffffffffffff1916827bffffffffffffffffffffffffffffffffffffffffffffffffffffffff1916149050919050565b6107f3816107ee6108e7565b6109e1565b50565b6000610802838361054f565b6108dc57600160008085815260200190815260200160002060000160008473ffffffffffffffffffffffffffffffffffffffff1673ffffffffffffffffffffffffffffffffffffffff16815260200190815260200160002060006101000a81548160ff0219169083151502179055506108796108e7565b73ffffffffffffffffffffffffffffffffffffffff168273ffffffffffffffffffffffffffffffffffffffff16847f2f8788117e7eff1d82e926ec794901d17c78024a50270940304540a733656f0d60405160405180910390a4600190506108e1565b600090505b92915050565b600033905090565b60006108fb838361054f565b156109d657600080600085815260200190815260200160002060000160008473ffffffffffffffffffffffffffffffffffffffff1673ffffffffffffffffffffffffffffffffffffffff16815260200190815260200160002060006101000a81548160ff0219169083151502179055506109736108e7565b73ffffffffffffffffffffffffffffffffffffffff168273ffffffffffffffffffffffffffffffffffffffff16847ff6391f5c32d9c69d2a47ea670b442974b53935d1edc7fd64eb21e047a839171b60405160405180910390a4600190506109db565b600090505b92915050565b6109eb828261054f565b610a2e5780826040517fe2517d3f000000000000000000000000000000000000000000000000000000008152600401610a2592919061139a565b60405180910390fd5b5050565b6000604051905090565b600080fd5b600080fd5b60007fffffffff0000000000000000000000000000000000000000000000000000000082169050919050565b610a7b81610a46565b8114610a8657600080fd5b50565b600081359050610a9881610a72565b92915050565b600060208284031215610ab457610ab3610a3c565b5b6000610ac284828501610a89565b91505092915050565b60008115159050919050565b610ae081610acb565b82525050565b6000602082019050610afb6000830184610ad7565b92915050565b6000819050919050565b610b1481610b01565b8114610b1f57600080fd5b50565b600081359050610b3181610b0b565b92915050565b600060208284031215610b4d57610b4c610a3c565b5b6000610b5b84828501610b22565b91505092915050565b610b6d81610b01565b82525050565b6000602082019050610b886000830184610b64565b92915050565b600073ffffffffffffffffffffffffffffffffffffffff82169050919050565b6000610bb982610b8e565b9050919050565b610bc981610bae565b8114610bd457600080fd5b50565b600081359050610be681610bc0565b92915050565b60008060408385031215610c0357610c02610a3c565b5b6000610c1185828601610b22565b9250506020610c2285828601610bd7565b9150509250929050565b6000819050919050565b610c3f81610c2c565b8114610c4a57600080fd5b50565b600081359050610c5c81610c36565b92915050565b600080fd5b600080fd5b6000601f19601f8301169050919050565b7f4e487b7100000000000000000000000000000000000000000000000000000000600052604160045260246000fd5b610cb582610c6c565b810181811067ffffffffffffffff82111715610cd457610cd3610c7d565b5b80604052505050565b6000610ce7610a32565b9050610cf38282610cac565b919050565b600067ffffffffffffffff821115610d1357610d12610c7d565b5b610d1c82610c6c565b9050602081019050919050565b82818337600083830152505050565b6000610d4b610d4684610cf8565b610cdd565b905082815260208101848484011115610d6757610d66610c67565b5b610d72848285610d29565b509392505050565b600082601f830112610d8f57610d8e610c62565b5b8135610d9f848260208601610d38565b91505092915050565b60008060008060808587031215610dc257610dc1610a3c565b5b6000610dd087828801610b22565b9450506020610de187828801610c4d565b935050604085013567ffffffffffffffff811115610e0257610e01610a41565b5b610e0e87828801610d7a565b925050606085013567ffffffffffffffff811115610e2f57610e2e610a41565b5b610e3b87828801610d7a565b91505092959194509250565b600060208284031215610e5d57610e5c610a3c565b5b6000610e6b84828501610bd7565b91505092915050565b610e7d81610c2c565b82525050565b6000602082019050610e986000830184610e74565b92915050565b600060208284031215610eb457610eb3610a3c565b5b6000610ec284828501610c4d565b91505092915050565b600081519050919050565b600082825260208201905092915050565b60005b83811015610f05578082015181840152602081019050610eea565b60008484015250505050565b6000610f1c82610ecb565b610f268185610ed6565b9350610f36818560208601610ee7565b610f3f81610c6c565b840191505092915050565b610f5381610bae565b82525050565b600060c082019050610f6e6000830189610b64565b610f7b6020830188610e74565b8181036040830152610f8d8187610f11565b90508181036060830152610fa18186610f11565b9050610fb06080830185610e74565b610fbd60a0830184610f4a565b979650505050505050565b7f4e487b7100000000000000000000000000000000000000000000000000000000600052601160045260246000fd5b600061100282610c2c565b91507fffffffffffffffffffffffffffffffffffffffffffffffffffffffffffffffff820361103457611033610fc8565b5b600182019050919050565b7f4e487b7100000000000000000000000000000000000000000000000000000000600052602260045260246000fd5b6000600282049050600182168061108657607f821691505b6020821081036110995761109861103f565b5b50919050565b60008190508160005260206000209050919050565b60006020601f8301049050919050565b600082821b905092915050565b6000600883026111017fffffffffffffffffffffffffffffffffffffffffffffffffffffffffffffffff826110c4565b61110b86836110c4565b95508019841693508086168417925050509392505050565b6000819050919050565b600061114861114361113e84610c2c565b611123565b610c2c565b9050919050565b6000819050919050565b6111628361112d565b61117661116e8261114f565b8484546110d1565b825550505050565b600090565b61118b61117e565b611196818484611159565b505050565b5b818110156111ba576111af600082611183565b60018101905061119c565b5050565b601f8211156111ff576111d08161109f565b6111d9846110b4565b810160208510156111e8578190505b6111fc6111f4856110b4565b83018261119b565b50505b505050565b600082821c905092915050565b600061122260001984600802611204565b1980831691505092915050565b600061123b8383611211565b9150826002028217905092915050565b61125482610ecb565b67ffffffffffffffff81111561126d5761126c610c7d565b5b611277825461106e565b6112828282856111be565b600060209050601f8311600181146112b557600084156112a3578287015190505b6112ad858261122f565b865550611315565b601f1984166112c38661109f565b60005b828110156112eb578489015182556001820191506020850194506020810190506112c6565b868310156113085784890151611304601f891682611211565b8355505b6001600288020188555050505b505050505050565b600060e082019050611332600083018a610e74565b61133f6020830189610b64565b61134c6040830188610e74565b818103606083015261135e8187610f11565b905081810360808301526113728186610f11565b905061138160a0830185610e74565b61138e60c0830184610f4a565b98975050505050505050565b60006040820190506113af6000830185610f4a565b6113bc6020830184610b64565b939250505056fea2646970667358221220e8ff93eecf6adb30755a0ebeb0a3a39e62dcac9f0831a794b846be333261ef8864736f6c63430008140033",
  "linkReferences": {},
  "deployedLinkReferences": {}
}