{"contracts/RayzoAuditLayer.sol":{"RayzoAuditLayer":{"abi":[{"inputs":[],"stateMutability":"nonpayable","type":"constructor"},{"inputs":[],"name":"AccessControlBadConfirmation","type":"error"},{"inputs":[{"internalType":"address","name":"account","type":"address"},{"internalType":"bytes32","name":"neededRole","type":"bytes32"}],"name":"AccessControlUnauthorizedAccount","type":"error"},{"anonymous":false,"inputs":[{"indexed":false,"internalType":"uint256","name":"reportId","type":"uint256"},{"indexed":false,"internalType":"bytes32","name":"reportHash","type":"bytes32"},{"indexed":false,"internalType":"uint256","name":"maxProbability","type":"uint256"},{"indexed":false,"internalType":"string","name":"confidenceLevel","type":"string"},{"indexed":false,"internalType":"string","name":"priority","type":"string"},{"indexed":false,"internalType":"uint256","name":"timestamp","type":"uint256"},{"indexed":false,"internalType":"address","name":"submittedBy","type":"address"}],"name":"ReportLogged","type":"event"},{"anonymous":false,"inputs":[{"indexed":true,"internalType":"bytes32","name":"role","type":"bytes32"},{"indexed":true,"internalType":"bytes32","name":"previousAdminRole","type":"bytes32"},{"indexed":true,"internalType":"bytes32","name":"newAdminRole","type":"bytes32"}],"name":"RoleAdminChanged","type":"event"},{"anonymous":false,"inputs":[{"indexed":true,"internalType":"bytes32","name":"role","type":"bytes32"},{"indexed":true,"internalType":"address","name":"account","type":"address"},{"indexed":true,"internalType":"address","name":"sender","type":"address"}],"name":"RoleGranted","type":"event"},{"anonymous":false,"inputs":[{"indexed":true,"internalType":"bytes32","name":"role","type":"bytes32"},{"indexed":true,"internalType":"address","name":"account","type":"address"},{"indexed":true,"internalType":"address","name":"sender","type":"address"}],"name":"RoleRevoked","type":"event"},{"inputs":[],"name":"DEFAULT_ADMIN_ROLE","outputs":[{"internalType":"bytes32","name":"","type":"bytes32"}],"stateMutability":"view","type":"function"},{"inputs":[],"name":"HOSPITAL_ROLE","outputs":[{"internalType":"bytes32","name":"","type":"bytes32"}],"stateMutability":"view","type":"function"},{"inputs":[{"internalType":"bytes32","name":"role","type":"bytes32"}],"name":"getRoleAdmin","outputs":[{"internalType":"bytes32","name":"","type":"bytes32"}],"stateMutability":"view","type":"function"},{"inputs":[{"internalType":"address","name":"hospital","type":"address"}],"name":"grantHospitalRole","outputs":[],"stateMutability":"nonpayable","type":"function"},{"inputs":[{"internalType":"bytes32","name":"role","type":"bytes32"},{"internalType":"address","name":"account","type":"address"}],"name":"grantRole","outputs":[],"stateMutability":"nonpayable","type":"function"},{"inputs":[{"internalType":"bytes32","name":"role","type":"bytes32"},{"internalType":"address","name":"account","type":"address"}],"name":"hasRole","outputs":[{"internalType":"bool","name":"","type":"bool"}],"stateMutability":"view","type":"function"},{"inputs":[{"internalType":"bytes32","name":"_reportHash","type":"bytes32"},{"internalType":"uint256","name":"_maxProbability","type":"uint256"},{"internalType":"string","name":"_confidenceLevel","type":"string"},{"internalType":"string","name":"_priority","type":"string"}],"name":"logReport","outputs":[],"stateMutability":"nonpayable","type":"function"},{"inputs":[{"internalType":"bytes32","name":"role","type":"bytes32"},{"internalType":"address","name":"callerConfirmation","type":"address"}],"name":"renounceRole","outputs":[],"stateMutability":"nonpayable","type":"function"},{"inputs":[],"name":"reportCounter","outputs":[{"internalType":"uint256","name":"","type":"uint256"}],"stateMutability":"view","type":"function"},{"inputs":[{"internalType":"uint256","name":"","type":"uint256"}],"name":"reports","outputs":[{"internalType":"bytes32","name":"reportHash","type":"bytes32"},{"internalType":"uint256","name":"maxProbability","type":"uint256"},{"internalType":"string","name":"confidenceLevel","type":"string"},{"internalType":"string","name":"priority","type":"string"},{"internalType":"uint256","name":"timestamp","type":"uint256"},{"internalType":"address","name":"submittedBy","type":"address"}],"stateMutability":"view","type":"function"},{"inputs":[{"internalType":"bytes32","name":"role","type":"bytes32"},{"internalType":"address","name":"account","type":"address"}],"name":"revokeRole","outputs":[],"stateMutability":"nonpayable","type":"function"},{"inputs":[{"internalType":"bytes4","name":"interfaceId","type":"bytes4"}],"name":"supportsInterface","outputs":[{"internalType":"bool","name":"","type":"bool"}],"stateMutability":"view","type":"function"}],"evm":{"bytecode":{"linkReferences":{},"object":"608060405234801561001057600080fd5b506100246000801b3361002a60201b60201c565b50610199565b600061003c838361012760201b60201c565b61011c57600160008085815260200190815260200160002060000160008473ffffffffffffffffffffffffffffffffffffffff1673ffffffffffffffffffffffffffffffffffffffff16815260200190815260200160002060006101000a81548160ff0219169083151502179055506100b961019160201b60201c565b73ffffffffffffffffffffffffffffffffffffffff168273ffffffffffffffffffffffffffffffffffffffff16847f2f8788117e7eff1d82e926ec794901d17c78024a50270940304540a733656f0d60405160405180910390a460019050610121565b600090505b92915050565b600080600084815260200190815260200160002060000160008373ffffffffffffffffffffffffffffffffffffffff1673ffffffffffffffffffffffffffffffffffffffff16815260200190815260200160002060009054906101000a900460ff16905092915050565b600033905090565b6113f9806101a86000396000f3fe608060405234801561001057600080fd5b50600436106100b45760003560e01c806391d148541161007157806391d1485414610189578063a217fddf146101b9578063b9bc38f2146101d7578063c942adf7146101f5578063d547741f1461022a578063f6ba667814610246576100b4565b806301ffc9a7146100b9578063248a9ca3146100e95780632f2ff15d1461011957806332962e861461013557806336568abe146101515780637ee756f21461016d575b600080fd5b6100d360048036038101906100ce9190610a9e565b610264565b6040516100e09190610ae6565b60405180910390f35b61010360048036038101906100fe9190610b37565b6102de565b6040516101109190610b73565b60405180910390f35b610133600480360381019061012e9190610bec565b6102fd565b005b61014f600480360381019061014a9190610da8565b61031f565b005b61016b60048036038101906101669190610bec565b610499565b005b61018760048036038101906101829190610e47565b610514565b005b6101a3600480360381019061019e9190610bec565b61054f565b6040516101b09190610ae6565b60405180910390f35b6101c16105b9565b6040516101ce9190610b73565b60405180910390f35b6101df6105c0565b6040516101ec9190610e83565b60405180910390f35b61020f600480360381019061020a9190610e9e565b6105c6565b60405161022196959493929190610f59565b60405180910390f35b610244600480360381019061023f9190610bec565b610732565b005b61024e610754565b60405161025b9190610b73565b60405180910390f35b60007f7965db0b000000000000000000000000000000000000000000000000000000007bffffffffffffffffffffffffffffffffffffffffffffffffffffffff1916827bffffffffffffffffffffffffffffffffffffffffffffffffffffffff191614806102d757506102d682610778565b5b9050919050565b6000806000838152602001908152602001600020600101549050919050565b610306826102de565b61030f816107e2565b61031983836107f6565b50505050565b7fc8f5b4140cca307cd927e59cbeea8291bffeee228fc677f0fa059aef7b4dd8d5610349816107e2565b6002600081548092919061035c90610ff7565b91905055506040518060c001604052808681526020018581526020018481526020018381526020014281526020013373ffffffffffffffffffffffffffffffffffffffff16815250600160006002548152602001908152602001600020600082015181600001556020820151816001015560408201518160020190816103e2919061124b565b5060608201518160030190816103f8919061124b565b506080820151816004015560a08201518160050160006101000a81548173ffffffffffffffffffffffffffffffffffffffff021916908373ffffffffffffffffffffffffffffffffffffffff1602179055509050507fa320073fd3423017709eb988556b7b87f12536e46749ae8200140b9302b34a8f60025486868686423360405161048a979695949392919061131d565b60405180910390a15050505050565b6104a16108e7565b73ffffffffffffffffffffffffffffffffffffffff168173ffffffffffffffffffffffffffffffffffffffff1614610505576040517f6697b23200000000000000000000000000000000000000000000000000000000815260040160405180910390fd5b61050f82826108ef565b505050565b6000801b610521816107e2565b61054b7fc8f5b4140cca307cd927e59cbeea8291bffeee228fc677f0fa059aef7b4dd8d5836102fd565b5050565b600080600084815260200190815260200160002060000160008373ffffffffffffffffffffffffffffffffffffffff1673ffffffffffffffffffffffffffffffffffffffff16815260200190815260200160002060009054906101000a900460ff16905092915050565b6000801b81565b60025481565b60016020528060005260406000206000915090508060000154908060010154908060020180546105f59061106e565b80601f01602080910402602001604051908101604052809291908181526020018280546106219061106e565b801561066e5780601f106106435761010080835404028352916020019161066e565b820191906000526020600020905b81548152906001019060200180831161065157829003601f168201915b5050505050908060030180546106839061106e565b80601f01602080910402602001604051908101604052809291908181526020018280546106af9061106e565b80156106fc5780601f106106d1576101008083540402835291602001916106fc565b820191906000526020600020905b8154815290600101906020018083116106df57829003601f168201915b5050505050908060040154908060050160009054906101000a900473ffffffffffffffffffffffffffffffffffffffff16905086565b61073b826102de565b610744816107e2565b61074e83836108ef565b50505050565b7fc8f5b4140cca307cd927e59cbeea8291bffeee228fc677f0fa059aef7b4dd8d581565b60007f01ffc9a7000000000000000000000000000000000000000000000000000000007bffffffffffffffffffffffffffffffffffffffffffffffffffffffff1916827bffffffffffffffffffffffffffffffffffffffffffffffffffffffff1916149050919050565b6107f3816107ee6108e7565b6109e1565b50565b6000610802838361054f565b6108dc57600160008085815260200190815260200160002060000160008473ffffffffffffffffffffffffffffffffffffffff1673ffffffffffffffffffffffffffffffffffffffff16815260200190815260200160002060006101000a81548160ff0219169083151502179055506108796108e7565b73ffffffffffffffffffffffffffffffffffffffff168273ffffffffffffffffffffffffffffffffffffffff16847f2f8788117e7eff1d82e926ec794901d17c78024a50270940304540a733656f0d60405160405180910390a4600190506108e1565b600090505b92915050565b600033905090565b60006108fb838361054f565b156109d657600080600085815260200190815260200160002060000160008473ffffffffffffffffffffffffffffffffffffffff1673ffffffffffffffffffffffffffffffffffffffff16815260200190815260200160002060006101000a81548160ff0219169083151502179055506109736108e7565b73ffffffffffffffffffffffffffffffffffffffff168273ffffffffffffffffffffffffffffffffffffffff16847ff6391f5c32d9c69d2a47ea670b442974b53935d1edc7fd64eb21e047a839171b60405160405180910390a4600190506109db565b600090505b92915050565b6109eb828261054f565b610a2e5780826040517fe2517d3f000000000000000000000000000000000000000000000000000000008152600401610a2592919061139a565b60405180910390fd5b5050565b6000604051905090565b600080fd5b600080fd5b60007fffffffff0000000000000000000000000000000000000000000000000000000082169050919050565b610a7b81610a46565b8114610a8657600080fd5b50565b600081359050610a9881610a72565b92915050565b600060208284031215610ab457610ab3610a3c565b5b6000610ac284828501610a89565b91505092915050565b60008115159050919050565b610ae081610acb565b82525050565b6000602082019050610afb6000830184610ad7565b92915050565b6000819050919050565b610b1481610b01565b8114610b1f57600080fd5b50565b600081359050610b3181610b0b565b92915050565b600060208284031215610b4d57610b4c610a3c565b5b6000610b5b84828501610b22565b91505092915050565b610b6d81610b01565b82525050565b6000602082019050610b886000830184610b64565b92915050565b600073ffffffffffffffffffffffffffffffffffffffff82169050919050565b6000610bb982610b8e565b9050919050565b610bc981610bae565b8114610bd457600080fd5b50565b600081359050610be681610bc0565b92915050565b60008060408385031215610c0357610c02610a3c565b5b6000610c1185828601610b22565b9250506020610c2285828601610bd7565b9150509250929050565b6000819050919050565b610c3f81610c2c565b8114610c4a57600080fd5b50565b600081359050610c5c81610c36565b92915050565b600080fd5b600080fd5b6000601f19601f8301169050919050565b7f4e487b7100000000000000000000000000000000000000000000000000000000600052604160045260246000fd5b610cb582610c6c565b810181811067ffffffffffffffff82111715610cd457610cd3610c7d565b5b80604052505050565b6000610ce7610a32565b9050610cf38282610cac565b919050565b600067ffffffffffffffff821115610d1357610d12610c7d565b5b610d1c82610c6c565b9050602081019050919050565b82818337600083830152505050565b6000610d4b610d4684610cf8565b610cdd565b905082815260208101848484011115610d6757610d66610c67565b5b610d72848285610d29565b509392505050565b600082601f830112610d8f57610d8e610c62565b5b8135610d9f848260208601610d38565b91505092915050565b60008060008060808587031215610dc257610dc1610a3c565b5b6000610dd087828801610b22565b9450506020610de187828801610c4d565b935050604085013567ffffffffffffffff811115610e0257610e01610a41565b5b610e0e87828801610d7a565b925050606085013567ffffffffffffffff811115610e2f57610e2e610a41565b5b610e3b87828801610d7a565b91505092959194509250565b600060208284031215610e5d57610e5c610a3c565b5b6000610e6b84828501610bd7565b91505092915050565b610e7d81610c2c565b82525050565b6000602082019050610e986000830184610e74565b92915050565b600060208284031215610eb457610eb3610a3c565b5b6000610ec284828501610c4d565b91505092915050565b600081519050919050565b600082825260208201905092915050565b60005b83811015610f05578082015181840152602081019050610eea565b60008484015250505050565b6000610f1c82610ecb565b610f268185610ed6565b9350610f36818560208601610ee7565b610f3f81610c6c565b840191505092915050565b610f5381610bae565b82525050565b600060c082019050610f6e6000830189610b64565b610f7b6020830188610e74565b8181036040830152610f8d8187610f11565b90508181036060830152610fa18186610f11565b9050610fb06080830185610e74565b610fbd60a0830184610f4a565b979650505050505050565b7f4e487b7100000000000000000000000000000000000000000000000000000000600052601160045260246000fd5b600061100282610c2c565b91507fffffffffffffffffffffffffffffffffffffffffffffffffffffffffffffffff820361103457611033610fc8565b5b600182019050919050565b7f4e487b7100000000000000000000000000000000000000000000000000000000600052602260045260246000fd5b6000600282049050600182168061108657607f821691505b6020821081036110995761109861103f565b5b50919050565b60008190508160005260206000209050919050565b60006020601f8301049050919050565b600082821b905092915050565b6000600883026111017fffffffffffffffffffffffffffffffffffffffffffffffffffffffffffffffff826110c4565b61110b86836110c4565b95508019841693508086168417925050509392505050565b6000819050919050565b600061114861114361113e84610c2c565b611123565b610c2c565b9050919050565b6000819050919050565b6111628361112d565b61117661116e8261114f565b8484546110d1565b825550505050565b600090565b61118b61117e565b611196818484611159565b505050565b5b818110156111ba576111af600082611183565b60018101905061119c565b5050565b601f8211156111ff576111d08161109f565b6111d9846110b4565b810160208510156111e8578190505b6111fc6111f4856110b4565b83018261119b565b50505b505050565b600082821c905092915050565b600061122260001984600802611204565b1980831691505092915050565b600061123b8383611211565b9150826002028217905092915050565b61125482610ecb565b67ffffffffffffffff81111561126d5761126c610c7d565b5b611277825461106e565b6112828282856111be565b600060209050601f8311600181146112b557600084156112a3578287015190505b6112ad858261122f565b865550611315565b601f1984166112c38661109f565b60005b828110156112eb578489015182556001820191506020850194506020810190506112c6565b868310156113085784890151611304601f891682611211565b8355505b6001600288020188555050505b505050505050565b600060e082019050611332600083018a610e74565b61133f6020830189610b64565b61134c6040830188610e74565b818103606083015261135e8187610f11565b905081810360808301526113728186610f11565b905061138160a0830185610e74565b61138e60c0830184610f4a565b98975050505050505050565b60006040820190506113af6000830185610f4a565b6113bc6020830184610b64565b939250505056fea2646970667358221220e8ff93eecf6adb30755a0ebeb0a3a39e62dcac9f0831a794b846be333261ef8864736f6c63430008140033","opcodes":"PUSH1 0x80 PUSH1 0x40 MSTORE CALLVALUE DUP1 ISZERO PUSH2 0x10 JUMPI PUSH1 0x0 DUP1 REVERT JUMPDEST POP PUSH2 0x24 PUSH1 0x0 DUP1 SHL CALLER PUSH2 0x2A PUSH1 0x20 SHL PUSH1 0x20 SHR JUMP JUMPDEST POP PUSH2 0x199 JUMP JUMPDEST PUSH1 0x0 PUSH2 0x3C DUP4 DUP4 PUSH2 0x127 PUSH1 0x20 SHL PUSH1 0x20 SHR JUMP JUMPDEST PUSH2 0x11C JUMPI PUSH1 0x1 PUSH1 0x0 DUP1 DUP6 DUP2 MSTORE PUSH1 0x20 ADD SWAP1 DUP2 MSTORE PUSH1 0x20 ADD PUSH1 0x0 KECCAK256 PUSH1 0x0 ADD PUSH1 0x0 DUP5 PUSH20 0xFFFFFFFFFFFFFFFFFFFFFFFFFFFFFFFFFFFFFFFF AND PUSH20 0xFFFFFFFFFFFFFFFFFFFFFFFFFFFFFFFFFFFFFFFF AND DUP2 MSTORE PUSH1 0x20 ADD SWAP1 DUP2 MSTORE PUSH1 0x20 ADD PUSH1 0x0 KECCAK256 PUSH1 0x0 PUSH2 0x100 EXP DUP2 SLOAD DUP2 PUSH1 0xFF MUL NOT AND SWAP1 DUP4 ISZERO ISZERO MUL OR SWAP1 SSTORE POP PUSH2 0xB9 PUSH2 0x191 PUSH1 0x20 SHL PUSH1 0x20 SHR JUMP JUMPDEST PUSH20 0xFFFFFFFFFFFFFFFFFFFFFFFFFFFFFFFFFFFFFFFF AND DUP3 PUSH20 0xFFFFFFFFFFFFFFFFFFFFFFFFFFFFFFFFFFFFFFFF AND DUP5 PUSH32 0x2F8788117E7EFF1D82E926EC794901D17C78024A50270940304540A733656F0D PUSH1 0x40 MLOAD PUSH1 0x40 MLOAD DUP1 SWAP2 SUB SWAP1 LOG4 PUSH1 0x1 SWAP1 POP PUSH2 0x121 JUMP JUMPDEST PUSH1 0x0 SWAP1 POP JUMPDEST SWAP3 SWAP2 POP POP JUMP JUMPDEST PUSH1 0x0 DUP1 PUSH1 0x0 DUP5 DUP2 MSTORE PUSH1 0x20 ADD SWAP1 DUP2 MSTORE PUSH1 0x20 ADD PUSH1 0x0 KECCAK256 PUSH1 0x0 ADD PUSH1 0x0 DUP4 PUSH20 0xFFFFFFFFFFFFFFFFFFFFFFFFFFFFFFFFFFFFFFFF AND PUSH20 0xFFFFFFFFFFFFFFFFFFFFFFFFFFFFFFFFFFFFFFFF AND DUP2 MSTORE PUSH1 0x20 ADD SWAP1 DUP2 MSTORE PUSH1 0x20 ADD PUSH1 0x0 KECCAK256 PUSH1 0x0 SWAP1 SLOAD SWAP1 PUSH2 0x100 EXP SWAP1 DIV PUSH1 0xFF AND SWAP1 POP SWAP3 SWAP2 POP POP JUMP JUMPDEST PUSH1 0x0 CALLER SWAP1 POP SWAP1 JUMP JUMPDEST PUSH2 0x13F9 DUP1 PUSH2 0x1A8 PUSH1 0x0 CODECOPY PUSH1 0x0 RETURN INVALID PUSH1 0x80 PUSH1 0x40 MSTORE CALLVALUE DUP1 ISZERO PUSH2 0x10 JUMPI PUSH1 0x0 DUP1 REVERT JUMPDEST POP PUSH1 0x4 CALLDATASIZE LT PUSH2 0xB4 JUMPI PUSH1 0x0 CALLDATALOAD PUSH1 0xE0 SHR DUP1 PUSH4 0x91D14854 GT PUSH2 0x71 JUMPI DUP1 PUSH4 0x91D14854 EQ PUSH2 0x189 JUMPI DUP1 PUSH4 0xA217FDDF EQ PUSH2 0x1B9 JUMPI DUP1 PUSH4 0xB9BC38F2 EQ PUSH2 0x1D7 JUMPI DUP1 PUSH4 0xC942ADF7 EQ PUSH2 0x1F5 JUMPI DUP1 PUSH4 0xD547741F EQ PUSH2 0x22A JUMPI DUP1 PUSH4 0xF6BA6678 EQ PUSH2 0x246 JUMPI PUSH2 0xB4 JUMP JUMPDEST DUP1 PUSH4 0x1FFC9A7 EQ PUSH2 0xB9 JUMPI DUP1 PUSH4 0x248A9CA3 EQ PUSH2 0xE9 JUMPI DUP1 PUSH4 0x2F2FF15D EQ PUSH2 0x119 JUMPI DUP1 PUSH4 0x32962E86 EQ PUSH2 0x135 JUMPI DUP1 PUSH4 0x36568ABE EQ PUSH2 0x151 JUMPI DUP1 PUSH4 0x7EE756F2 EQ PUSH2 0x16D JUMPI JUMPDEST PUSH1 0x0 DUP1 REVERT JUMPDEST PUSH2 0xD3 PUSH1 0x4 DUP1 CALLDATASIZE SUB DUP2 ADD SWAP1 PUSH2 0xCE SWAP2 SWAP1 PUSH2 0xA9E JUMP JUMPDEST PUSH2 0x264 JUMP JUMPDEST PUSH1 0x40 MLOAD PUSH2 0xE0 SWAP2 SWAP1 PUSH2 0xAE6 JUMP JUMPDEST PUSH1 0x40 MLOAD DUP1 SWAP2 SUB SWAP1 RETURN JUMPDEST PUSH2 0x103 PUSH1 0x4 DUP1 CALLDATASIZE SUB DUP2 ADD SWAP1 PUSH2 0xFE SWAP2 SWAP1 PUSH2 0xB37 JUMP JUMPDEST PUSH2 0x2DE JUMP JUMPDEST PUSH1 0x40 MLOAD PUSH2 0x110 SWAP2 SWAP1 PUSH2 0xB73 JUMP JUMPDEST PUSH1 0x40 MLOAD DUP1 SWAP2 SUB SWAP1 RETURN JUMPDEST PUSH2 0x133 PUSH1 0x4 DUP1 CALLDATASIZE SUB DUP2 ADD SWAP1 PUSH2 0x12E SWAP2 SWAP1 PUSH2 0xBEC JUMP JUMPDEST PUSH2 0x2FD JUMP JUMPDEST STOP JUMPDEST PUSH2 0x14F PUSH1 0x4 DUP1 CALLDATASIZE SUB DUP2 ADD SWAP1 PUSH2 0x14A SWAP2 SWAP1 PUSH2 0xDA8 JUMP JUMPDEST PUSH2 0x31F JUMP JUMPDEST STOP JUMPDEST PUSH2 0x16B PUSH1 0x4 DUP1 CALLDATASIZE SUB DUP2 ADD SWAP1 PUSH2 0x166 SWAP2 SWAP1 PUSH2 0xBEC JUMP JUMPDEST PUSH2 0x499 JUMP JUMPDEST STOP JUMPDEST PUSH2 0x187 PUSH1 0x4 DUP1 CALLDATASIZE SUB DUP2 ADD SWAP1 PUSH2 0x182 SWAP2 SWAP1 PUSH2 0xE47 JUMP JUMPDEST PUSH2 0x514 JUMP JUMPDEST STOP JUMPDEST PUSH2 0x1A3 PUSH1 0x4 DUP1 CALLDATASIZE SUB DUP2 ADD SWAP1 PUSH2 0x19E SWAP2 SWAP1 PUSH2 0xBEC JUMP JUMPDEST PUSH2 0x54F JUMP JUMPDEST PUSH1 0x40 MLOAD PUSH2 0x1B0 SWAP2 SWAP1 PUSH2 0xAE6 JUMP JUMPDEST PUSH1 0x40 MLOAD DUP1 SWAP2 SUB SWAP1 RETURN JUMPDEST PUSH2 0x1C1 PUSH2 0x5B9 JUMP JUMPDEST PUSH1 0x40 MLOAD PUSH2 0x1CE SWAP2 SWAP1 PUSH2 0xB73 JUMP JUMPDEST PUSH1 0x40 MLOAD DUP1 SWAP2 SUB SWAP1 RETURN JUMPDEST PUSH2 0x1DF PUSH2 0x5C0 JUMP JUMPDEST PUSH1 0x40 MLOAD PUSH2 0x1EC SWAP2 SWAP1 PUSH2 0xE83 JUMP JUMPDEST PUSH1 0x40 MLOAD DUP1 SWAP2 SUB SWAP1 RETURN JUMPDEST PUSH2 0x20F PUSH1 0x4 DUP1 CALLDATASIZE SUB DUP2 ADD SWAP1 PUSH2 0x20A SWAP2 SWAP1 PUSH2 0xE9E JUMP JUMPDEST PUSH2 0x5C6 JUMP JUMPDEST PUSH1 0x40 MLOAD PUSH2 0x221 SWAP7 SWAP6 SWAP5 SWAP4 SWAP3 SWAP2 SWAP1 PUSH2 0xF59 JUMP JUMPDEST PUSH1 0x40 MLOAD DUP1 SWAP2 SUB SWAP1 RETURN JUMPDEST PUSH2 0x244 PUSH1 0x4 DUP1 CALLDATASIZE SUB DUP2 ADD SWAP1 PUSH2 0x23F SWAP2 SWAP1 PUSH2 0xBEC JUMP JUMPDEST PUSH2 0x732 JUMP JUMPDEST STOP JUMPDEST PUSH2 0x24E PUSH2 0x754 JUMP JUMPDEST PUSH1 0x40 MLOAD PUSH2 0x25B SWAP2 SWAP1 PUSH2 0xB73 JUMP JUMPDEST PUSH1 0x40 MLOAD DUP1 SWAP2 SUB SWAP1 RETURN JUMPDEST PUSH1 0x0 PUSH32 0x7965DB0B00000000000000000000000000000000000000000000000000000000 PUSH28 0xFFFFFFFFFFFFFFFFFFFFFFFFFFFFFFFFFFFFFFFFFFFFFFFFFFFFFFFF NOT AND DUP3 PUSH28 0xFFFFFFFFFFFFFFFFFFFFFFFFFFFFFFFFFFFFFFFFFFFFFFFFFFFFFFFF NOT AND EQ DUP1 PUSH2 0x2D7 JUMPI POP PUSH2 0x2D6 DUP3 PUSH2 0x778 JUMP JUMPDEST JUMPDEST SWAP1 POP SWAP2 SWAP1 POP JUMP JUMPDEST PUSH1 0x0 DUP1 PUSH1 0x0 DUP4 DUP2 MSTORE PUSH1 0x20 ADD SWAP1 DUP2 MSTORE PUSH1 0x20 ADD PUSH1 0x0 KECCAK256 PUSH1 0x1 ADD SLOAD SWAP1 POP SWAP2 SWAP1 POP JUMP JUMPDEST PUSH2 0x306 DUP3 PUSH2 0x2DE JUMP JUMPDEST PUSH2 0x30F DUP2 PUSH2 0x7E2 JUMP JUMPDEST PUSH2 0x319 DUP4 DUP4 PUSH2 0x7F6 JUMP JUMPDEST POP POP POP POP JUMP JUMPDEST PUSH32 0xC8F5B4140CCA307CD927E59CBEEA8291BFFEEE228FC677F0FA059AEF7B4DD8D5 PUSH2 0x349 DUP2 PUSH2 0x7E2 JUMP JUMPDEST PUSH1 0x2 PUSH1 0x0 DUP2 SLOAD DUP1 SWAP3 SWAP2 SWAP1 PUSH2 0x35C SWAP1 PUSH2 0xFF7 JUMP JUMPDEST SWAP2 SWAP1 POP SSTORE POP PUSH1 0x40 MLOAD DUP1 PUSH1 0xC0 ADD PUSH1 0x40 MSTORE DUP1 DUP7 DUP2 MSTORE PUSH1 0x20 ADD DUP6 DUP2 MSTORE PUSH1 0x20 ADD DUP5 DUP2 MSTORE PUSH1 0x20 ADD DUP4 DUP2 MSTORE PUSH1 0x20 ADD TIMESTAMP DUP2 MSTORE PUSH1 0x20 ADD CALLER PUSH20 0xFFFFFFFFFFFFFFFFFFFFFFFFFFFFFFFFFFFFFFFF AND DUP2 MSTORE POP PUSH1 0x1 PUSH1 0x0 PUSH1 0x2 SLOAD DUP2 MSTORE PUSH1 0x20 ADD SWAP1 DUP2 MSTORE PUSH1 0x20 ADD PUSH1 0x0 KECCAK256 PUSH1 0x0 DUP3 ADD MLOAD DUP2 PUSH1 0x0 ADD SSTORE PUSH1 0x20 DUP3 ADD MLOAD DUP2 PUSH1 0x1 ADD SSTORE PUSH1 0x40 DUP3 ADD MLOAD DUP2 PUSH1 0x2 ADD SWAP1 DUP2 PUSH2 0x3E2 SWAP2 SWAP1 PUSH2 0x124B JUMP JUMPDEST POP PUSH1 0x60 DUP3 ADD MLOAD DUP2 PUSH1 0x3 ADD SWAP1 DUP2 PUSH2 0x3F8 SWAP2 SWAP1 PUSH2 0x124B JUMP JUMPDEST POP PUSH1 0x80 DUP3 ADD MLOAD DUP2 PUSH1 0x4 ADD SSTORE PUSH1 0xA0 DUP3 ADD MLOAD DUP2 PUSH1 0x5 ADD PUSH1 0x0 PUSH2 0x100 EXP DUP2 SLOAD DUP2 PUSH20 0xFFFFFFFFFFFFFFFFFFFFFFFFFFFFFFFFFFFFFFFF MUL NOT AND SWAP1 DUP4 PUSH20 0xFFFFFFFFFFFFFFFFFFFFFFFFFFFFFFFFFFFFFFFF AND MUL OR SWAP1 SSTORE POP SWAP1 POP POP PUSH32 0xA320073FD3423017709EB988556B7B87F12536E46749AE8200140B9302B34A8F PUSH1 0x2 SLOAD DUP7 DUP7 DUP7 DUP7 TIMESTAMP CALLER PUSH1 0x40 MLOAD PUSH2 0x48A SWAP8 SWAP7 SWAP6 SWAP5 SWAP4 SWAP3 SWAP2 SWAP1 PUSH2 0x131D JUMP JUMPDEST PUSH1 0x40 MLOAD DUP1 SWAP2 SUB SWAP1 LOG1 POP POP POP POP POP JUMP JUMPDEST PUSH2 0x4A1 PUSH2 0x8E7 JUMP JUMPDEST PUSH20 0xFFFFFFFFFFFFFFFFFFFFFFFFFFFFFFFFFFFFFFFF AND DUP2 PUSH20 0xFFFFFFFFFFFFFFFFFFFFFFFFFFFFFFFFFFFFFFFF AND EQ PUSH2 0x505 JUMPI PUSH1 0x40 MLOAD PUSH32 0x6697B23200000000000000000000000000000000000000000000000000000000 DUP2 MSTORE PUSH1 0x4 ADD PUSH1 0x40 MLOAD DUP1 SWAP2 SUB SWAP1 REVERT JUMPDEST PUSH2 0x50F DUP3 DUP3 PUSH2 0x8EF JUMP JUMPDEST POP POP POP JUMP JUMPDEST PUSH1 0x0 DUP1 SHL PUSH2 0x521 DUP2 PUSH2 0x7E2 JUMP JUMPDEST PUSH2 0x54B PUSH32 0xC8F5B4140CCA307CD927E59CBEEA8291BFFEEE228FC677F0FA059AEF7B4DD8D5 DUP4 PUSH2 0x2FD JUMP JUMPDEST POP POP JUMP JUMPDEST PUSH1 0x0 DUP1 PUSH1 0x0 DUP5 DUP2 MSTORE PUSH1 0x20 ADD SWAP1 DUP2 MSTORE PUSH1 0x20 ADD PUSH1 0x0 KECCAK256 PUSH1 0x0 ADD PUSH1 0x0 DUP4 PUSH20 0xFFFFFFFFFFFFFFFFFFFFFFFFFFFFFFFFFFFFFFFF AND PUSH20 0xFFFFFFFFFFFFFFFFFFFFFFFFFFFFFFFFFFFFFFFF AND DUP2 MSTORE PUSH1 0x20 ADD SWAP1 DUP2 MSTORE PUSH1 0x20 ADD PUSH1 0x0 KECCAK256 PUSH1 0x0 SWAP1 SLOAD SWAP1 PUSH2 0x100 EXP SWAP1 DIV PUSH1 0xFF AND SWAP1 POP SWAP3 SWAP2 POP POP JUMP JUMPDEST PUSH1 0x0 DUP1 SHL DUP2 JUMP JUMPDEST PUSH1 0x2 SLOAD DUP2 JUMP JUMPDEST PUSH1 0x1 PUSH1 0x20 MSTORE DUP1 PUSH1 0x0 MSTORE PUSH1 0x40 PUSH1 0x0 KECCAK256 PUSH1 0x0 SWAP2 POP SWAP1 POP DUP1 PUSH1 0x0 ADD SLOAD SWAP1 DUP1 PUSH1 0x1 ADD SLOAD SWAP1 DUP1 PUSH1 0x2 ADD DUP1 SLOAD PUSH2 0x5F5 SWAP1 PUSH2 0x106E JUMP JUMPDEST DUP1 PUSH1 0x1F ADD PUSH1 0x20 DUP1 SWAP2 DIV MUL PUSH1 0x20 ADD PUSH1 0x40 MLOAD SWAP1 DUP2 ADD PUSH1 0x40 MSTORE DUP1 SWAP3 SWAP2 SWAP1 DUP2 DUP2 MSTORE PUSH1 0x20 ADD DUP3 DUP1 SLOAD PUSH2 0x621 SWAP1 PUSH2 0x106E JUMP JUMPDEST DUP1 ISZERO PUSH2 0x66E JUMPI DUP1 PUSH1 0x1F LT PUSH2 0x643 JUMPI PUSH2 0x100 DUP1 DUP4 SLOAD DIV MUL DUP4 MSTORE SWAP2 PUSH1 0x20 ADD SWAP2 PUSH2 0x66E JUMP JUMPDEST DUP3 ADD SWAP2 SWAP1 PUSH1 0x0 MSTORE PUSH1 0x20 PUSH1 0x0 KECCAK256 SWAP1 JUMPDEST DUP2 SLOAD DUP2 MSTORE SWAP1 PUSH1 0x1 ADD SWAP1 PUSH1 0x20 ADD DUP1 DUP4 GT PUSH2 0x651 JUMPI DUP3 SWAP1 SUB PUSH1 0x1F AND DUP3 ADD SWAP2 JUMPDEST POP POP POP POP POP SWAP1 DUP1 PUSH1 0x3 ADD DUP1 SLOAD PUSH2 0x683 SWAP1 PUSH2 0x106E JUMP JUMPDEST DUP1 PUSH1 0x1F ADD PUSH1 0x20 DUP1 SWAP2 DIV MUL PUSH1 0x20 ADD PUSH1 0x40 MLOAD SWAP1 DUP2 ADD PUSH1 0x40 MSTORE DUP1 SWAP3 SWAP2 SWAP1 DUP2 DUP2 MSTORE PUSH1 0x20 ADD DUP3 DUP1 SLOAD PUSH2 0x6AF SWAP1 PUSH2 0x106E JUMP JUMPDEST DUP1 ISZERO PUSH2 0x6FC JUMPI DUP1 PUSH1 0x1F LT PUSH2 0x6D1 JUMPI PUSH2 0x100 DUP1 DUP4 SLOAD DIV MUL DUP4 MSTORE SWAP2 PUSH1 0x20 ADD SWAP2 PUSH2 0x6FC JUMP JUMPDEST DUP3 ADD SWAP2 SWAP1 PUSH1 0x0 MSTORE PUSH1 0x20 PUSH1 0x0 KECCAK256 SWAP1 JUMPDEST DUP2 SLOAD DUP2 MSTORE SWAP1 PUSH1 0x1 ADD SWAP1 PUSH1 0x20 ADD DUP1 DUP4 GT PUSH2 0x6DF JUMPI DUP3 SWAP1 SUB PUSH1 0x1F AND DUP3 ADD SWAP2 JUMPDEST POP POP POP POP POP SWAP1 DUP1 PUSH1 0x4 ADD SLOAD SWAP1 DUP1 PUSH1 0x5 ADD PUSH1 0x0 SWAP1 SLOAD SWAP1 PUSH2 0x100 EXP SWAP1 DIV PUSH20 0xFFFFFFFFFFFFFFFFFFFFFFFFFFFFFFFFFFFFFFFF AND SWAP1 POP DUP7 JUMP JUMPDEST PUSH2 0x73B DUP3 PUSH2 0x2DE JUMP JUMPDEST PUSH2 0x744 DUP2 PUSH2 0x7E2 JUMP JUMPDEST PUSH2 0x74E DUP4 DUP4 PUSH2 0x8EF JUMP JUMPDEST POP POP POP POP JUMP JUMPDEST PUSH32 0xC8F5B4140CCA307CD927E59CBEEA8291BFFEEE228FC677F0FA059AEF7B4DD8D5 DUP2 JUMP JUMPDEST PUSH1 0x0 PUSH32 0x1FFC9A700000000000000000000000000000000000000000000000000000000 PUSH28 0xFFFFFFFFFFFFFFFFFFFFFFFFFFFFFFFFFFFFFFFFFFFFFFFFFFFFFFFF NOT AND DUP3 PUSH28 0xFFFFFFFFFFFFFFFFFFFFFFFFFFFFFFFFFFFFFFFFFFFFFFFFFFFFFFFF NOT AND EQ SWAP1 POP SWAP2 SWAP1 POP JUMP JUMPDEST PUSH2 0x7F3 DUP2 PUSH2 0x7EE PUSH2 0x8E7 JUMP JUMPDEST PUSH2 0x9E1 JUMP JUMPDEST POP JUMP JUMPDEST PUSH1 0x0 PUSH2 0x802 DUP4 DUP4 PUSH2 0x54F JUMP JUMPDEST PUSH2 0x8DC JUMPI PUSH1 0x1 PUSH1 0x0 DUP1 DUP6 DUP2 MSTORE PUSH1 0x20 ADD SWAP1 DUP2 MSTORE PUSH1 0x20 ADD PUSH1 0x0 KECCAK256 PUSH1 0x0 ADD PUSH1 0x0 DUP5 PUSH20 0xFFFFFFFFFFFFFFFFFFFFFFFFFFFFFFFFFFFFFFFF AND PUSH20 0xFFFFFFFFFFFFFFFFFFFFFFFFFFFFFFFFFFFFFFFF AND DUP2 MSTORE PUSH1 0x20 ADD SWAP1 DUP2 MSTORE PUSH1 0x20 ADD PUSH1 0x0 KECCAK256 PUSH1 0x0 PUSH2 0x100 EXP DUP2 SLOAD DUP2 PUSH1 0xFF MUL NOT AND SWAP1 DUP4 ISZERO ISZERO MUL OR SWAP1 SSTORE POP PUSH2 0x879 PUSH2 0x8E7 JUMP JUMPDEST PUSH20 0xFFFFFFFFFFFFFFFFFFFFFFFFFFFFFFFFFFFFFFFF AND DUP3 PUSH20 0xFFFFFFFFFFFFFFFFFFFFFFFFFFFFFFFFFFFFFFFF AND DUP5 PUSH32 0x2F8788117E7EFF1D82E926EC794901D17C78024A50270940304540A733656F0D PUSH1 0x40 MLOAD PUSH1 0x40 MLOAD DUP1 SWAP2 SUB SWAP1 LOG4 PUSH1 0x1 SWAP1 POP PUSH2 0x8E1 JUMP JUMPDEST PUSH1 0x0 SWAP1 POP JUMPDEST SWAP3 SWAP2 POP POP JUMP JUMPDEST PUSH1 0x0 CALLER SWAP1 POP SWAP1 JUMP JUMPDEST PUSH1 0x0 PUSH2 0x8FB DUP4 DUP4 PUSH2 0x54F JUMP JUMPDEST ISZERO PUSH2 0x9D6 JUMPI PUSH1 0x0 DUP1 PUSH1 0x0 DUP6 DUP2 MSTORE PUSH1 0x20 ADD SWAP1 DUP2 MSTORE PUSH1 0x20 ADD PUSH1 0x0 KECCAK256 PUSH1 0x0 ADD PUSH1 0x0 DUP5 PUSH20 0xFFFFFFFFFFFFFFFFFFFFFFFFFFFFFFFFFFFFFFFF AND PUSH20 0xFFFFFFFFFFFFFFFFFFFFFFFFFFFFFFFFFFFFFFFF AND DUP2 MSTORE PUSH1 0x20 ADD SWAP1 DUP2 MSTORE PUSH1 0x20 ADD PUSH1 0x0 KECCAK256 PUSH1 0x0 PUSH2 0x100 EXP DUP2 SLOAD DUP2 PUSH1 0xFF MUL NOT AND SWAP1 DUP4 ISZERO ISZERO MUL OR SWAP1 SSTORE POP PUSH2 0x973 PUSH2 0x8E7 JUMP JUMPDEST PUSH20 0xFFFFFFFFFFFFFFFFFFFFFFFFFFFFFFFFFFFFFFFF AND DUP3 PUSH20 0xFFFFFFFFFFFFFFFFFFFFFFFFFFFFFFFFFFFFFFFF AND DUP5 PUSH32 0xF6391F5C32D9C69D2A47EA670B442974B53935D1EDC7FD64EB21E047A839171B PUSH1 0x40 MLOAD PUSH1 0x40 MLOAD DUP1 SWAP2 SUB SWAP1 LOG4 PUSH1 0x1 SWAP1 POP PUSH2 0x9DB JUMP JUMPDEST PUSH1 0x0 SWAP1 POP JUMPDEST SWAP3 SWAP2 POP POP JUMP JUMPDEST PUSH2 0x9EB DUP3 DUP3 PUSH2 0x54F JUMP JUMPDEST PUSH2 0xA2E JUMPI DUP1 DUP3 PUSH1 0x40 MLOAD PUSH32 0xE2517D3F00000000000000000000000000000000000000000000000000000000 DUP2 MSTORE PUSH1 0x4 ADD PUSH2 0xA25 SWAP3 SWAP2 SWAP1 PUSH2 0x139A JUMP JUMPDEST PUSH1 0x40 MLOAD DUP1 SWAP2 SUB SWAP1 REVERT JUMPDEST POP POP JUMP JUMPDEST PUSH1 0x0 PUSH1 0x40 MLOAD SWAP1 POP SWAP1 JUMP JUMPDEST PUSH1 0x0 DUP1 REVERT JUMPDEST PUSH1 0x0 DUP1 REVERT JUMPDEST PUSH1 0x0 PUSH32 0xFFFFFFFF00000000000000000000000000000000000000000000000000000000 DUP3 AND SWAP1 POP SWAP2 SWAP1 POP JUMP JUMPDEST PUSH2 0xA7B DUP2 PUSH2 0xA46 JUMP JUMPDEST DUP2 EQ PUSH2 0xA86 JUMPI PUSH1 0x0 DUP1 REVERT JUMPDEST POP JUMP JUMPDEST PUSH1 0x0 DUP2 CALLDATALOAD SWAP1 POP PUSH2 0xA98 DUP2 PUSH2 0xA72 JUMP JUMPDEST SWAP3 SWAP2 POP POP JUMP JUMPDEST PUSH1 0x0 PUSH1 0x20 DUP3 DUP5 SUB SLT ISZERO PUSH2 0xAB4 JUMPI PUSH2 0xAB3 PUSH2 0xA3C JUMP JUMPDEST JUMPDEST PUSH1 0x0 PUSH2 0xAC2 DUP5 DUP3 DUP6 ADD PUSH2 0xA89 JUMP JUMPDEST SWAP2 POP POP SWAP3 SWAP2 POP POP JUMP JUMPDEST PUSH1 0x0 DUP2 ISZERO ISZERO SWAP1 POP SWAP2 SWAP1 POP JUMP JUMPDEST PUSH2 0xAE0 DUP2 PUSH2 0xACB JUMP JUMPDEST DUP3 MSTORE POP POP JUMP JUMPDEST PUSH1 0x0 PUSH1 0x20 DUP3 ADD SWAP1 POP PUSH2 0xAFB PUSH1 0x0 DUP4 ADD DUP5 PUSH2 0xAD7 JUMP JUMPDEST SWAP3 SWAP2 POP POP JUMP JUMPDEST PUSH1 0x0 DUP2 SWAP1 POP SWAP2 SWAP1 POP JUMP JUMPDEST PUSH2 0xB14 DUP2 PUSH2 0xB01 JUMP JUMPDEST DUP2 EQ PUSH2 0xB1F JUMPI PUSH1 0x0 DUP1 REVERT JUMPDEST POP JUMP JUMPDEST PUSH1 0x0 DUP2 CALLDATALOAD SWAP1 POP PUSH2 0xB31 DUP2 PUSH2 0xB0B JUMP JUMPDEST SWAP3 SWAP2 POP POP JUMP JUMPDEST PUSH1 0x0 PUSH1 0x20 DUP3 DUP5 SUB SLT ISZERO PUSH2 0xB4D JUMPI PUSH2 0xB4C PUSH2 0xA3C JUMP JUMPDEST JUMPDEST PUSH1 0x0 PUSH2 0xB5B DUP5 DUP3 DUP6 ADD PUSH2 0xB22 JUMP JUMPDEST SWAP2 POP POP SWAP3 SWAP2 POP POP JUMP JUMPDEST PUSH2 0xB6D DUP2 PUSH2 0xB01 JUMP JUMPDEST DUP3 MSTORE POP POP JUMP JUMPDEST PUSH1 0x0 PUSH1 0x20 DUP3 ADD SWAP1 POP PUSH2 0xB88 PUSH1 0x0 DUP4 ADD DUP5 PUSH2 0xB64 JUMP JUMPDEST SWAP3 SWAP2 POP POP JUMP JUMPDEST PUSH1 0x0 PUSH20 0xFFFFFFFFFFFFFFFFFFFFFFFFFFFFFFFFFFFFFFFF DUP3 AND SWAP1 POP SWAP2 SWAP1 POP JUMP JUMPDEST PUSH1 0x0 PUSH2 0xBB9 DUP3 PUSH2 0xB8E JUMP JUMPDEST SWAP1 POP SWAP2 SWAP1 POP JUMP JUMPDEST PUSH2 0xBC9 DUP2 PUSH2 0xBAE JUMP JUMPDEST DUP2 EQ PUSH2 0xBD4 JUMPI PUSH1 0x0 DUP1 REVERT JUMPDEST POP JUMP JUMPDEST PUSH1 0x0 DUP2 CALLDATALOAD SWAP1 POP PUSH2 0xBE6 DUP2 PUSH2 0xBC0 JUMP JUMPDEST SWAP3 SWAP2 POP POP JUMP JUMPDEST PUSH1 0x0 DUP1 PUSH1 0x40 DUP4 DUP6 SUB SLT ISZERO PUSH2 0xC03 JUMPI PUSH2 0xC02 PUSH2 0xA3C JUMP JUMPDEST JUMPDEST PUSH1 0x0 PUSH2 0xC11 DUP6 DUP3 DUP7 ADD PUSH2 0xB22 JUMP JUMPDEST SWAP3 POP POP PUSH1 0x20 PUSH2 0xC22 DUP6 DUP3 DUP7 ADD PUSH2 0xBD7 JUMP JUMPDEST SWAP2 POP POP SWAP3 POP SWAP3 SWAP1 POP JUMP JUMPDEST PUSH1 0x0 DUP2 SWAP1 POP SWAP2 SWAP1 POP JUMP JUMPDEST PUSH2 0xC3F DUP2 PUSH2 0xC2C JUMP JUMPDEST DUP2 EQ PUSH2 0xC4A JUMPI PUSH1 0x0 DUP1 REVERT JUMPDEST POP JUMP JUMPDEST PUSH1 0x0 DUP2 CALLDATALOAD SWAP1 POP PUSH2 0xC5C DUP2 PUSH2 0xC36 JUMP JUMPDEST SWAP3 SWAP2 POP POP JUMP JUMPDEST PUSH1 0x0 DUP1 REVERT JUMPDEST PUSH1 0x0 DUP1 REVERT JUMPDEST PUSH1 0x0 PUSH1 0x1F NOT PUSH1 0x1F DUP4 ADD AND SWAP1 POP SWAP2 SWAP1 POP JUMP JUMPDEST PUSH32 0x4E487B7100000000000000000000000000000000000000000000000000000000 PUSH1 0x0 MSTORE PUSH1 0x41 PUSH1 0x4 MSTORE PUSH1 0x24 PUSH1 0x0 REVERT JUMPDEST PUSH2 0xCB5 DUP3 PUSH2 0xC6C JUMP JUMPDEST DUP2 ADD DUP2 DUP2 LT PUSH8 0xFFFFFFFFFFFFFFFF DUP3 GT OR ISZERO PUSH2 0xCD4 JUMPI PUSH2 0xCD3 PUSH2 0xC7D JUMP JUMPDEST JUMPDEST DUP1 PUSH1 0x40 MSTORE POP POP POP JUMP JUMPDEST PUSH1 0x0 PUSH2 0xCE7 PUSH2 0xA32 JUMP JUMPDEST SWAP1 POP PUSH2 0xCF3 DUP3 DUP3 PUSH2 0xCAC JUMP JUMPDEST SWAP2 SWAP1 POP JUMP JUMPDEST PUSH1 0x0 PUSH8 0xFFFFFFFFFFFFFFFF DUP3 GT ISZERO PUSH2 0xD13 JUMPI PUSH2 0xD12 PUSH2 0xC7D JUMP JUMPDEST JUMPDEST PUSH2 0xD1C DUP3 PUSH2 0xC6C JUMP JUMPDEST SWAP1 POP PUSH1 0x20 DUP2 ADD SWAP1 POP SWAP2 SWAP1 POP JUMP JUMPDEST DUP3 DUP2 DUP4 CALLDATACOPY PUSH1 0x0 DUP4 DUP4 ADD MSTORE POP POP POP JUMP JUMPDEST PUSH1 0x0 PUSH2 0xD4B PUSH2 0xD46 DUP5 PUSH2 0xCF8 JUMP JUMPDEST PUSH2 0xCDD JUMP JUMPDEST SWAP1 POP DUP3 DUP2 MSTORE PUSH1 0x20 DUP2 ADD DUP5 DUP5 DUP5 ADD GT ISZERO PUSH2 0xD67 JUMPI PUSH2 0xD66 PUSH2 0xC67 JUMP JUMPDEST JUMPDEST PUSH2 0xD72 DUP5 DUP3 DUP6 PUSH2 0xD29 JUMP JUMPDEST POP SWAP4 SWAP3 POP POP POP JUMP JUMPDEST PUSH1 0x0 DUP3 PUSH1 0x1F DUP4 ADD SLT PUSH2 0xD8F JUMPI PUSH2 0xD8E PUSH2 0xC62 JUMP JUMPDEST JUMPDEST DUP2 CALLDATALOAD PUSH2 0xD9F DUP5 DUP3 PUSH1 0x20 DUP7 ADD PUSH2 0xD38 JUMP JUMPDEST SWAP2 POP POP SWAP3 SWAP2 POP POP JUMP JUMPDEST PUSH1 0x0 DUP1 PUSH1 0x0 DUP1 PUSH1 0x80 DUP6 DUP8 SUB SLT ISZERO PUSH2 0xDC2 JUMPI PUSH2 0xDC1 PUSH2 0xA3C JUMP JUMPDEST JUMPDEST PUSH1 0x0 PUSH2 0xDD0 DUP8 DUP3 DUP9 ADD PUSH2 0xB22 JUMP JUMPDEST SWAP5 POP POP PUSH1 0x20 PUSH2 0xDE1 DUP8 DUP3 DUP9 ADD PUSH2 0xC4D JUMP JUMPDEST SWAP4 POP POP PUSH1 0x40 DUP6 ADD CALLDATALOAD PUSH8 0xFFFFFFFFFFFFFFFF DUP2 GT ISZERO PUSH2 0xE02 JUMPI PUSH2 0xE01 PUSH2 0xA41 JUMP JUMPDEST JUMPDEST PUSH2 0xE0E DUP8 DUP3 DUP9 ADD PUSH2 0xD7A JUMP JUMPDEST SWAP3 POP POP PUSH1 0x60 DUP6 ADD CALLDATALOAD PUSH8 0xFFFFFFFFFFFFFFFF DUP2 GT ISZERO PUSH2 0xE2F JUMPI PUSH2 0xE2E PUSH2 0xA41 JUMP JUMPDEST JUMPDEST PUSH2 0xE3B DUP8 DUP3 DUP9 ADD PUSH2 0xD7A JUMP JUMPDEST SWAP2 POP POP SWAP3 SWAP6 SWAP2 SWAP5 POP SWAP3 POP JUMP JUMPDEST PUSH1 0x0 PUSH1 0x20 DUP3 DUP5 SUB SLT ISZERO PUSH2 0xE5D JUMPI PUSH2 0xE5C PUSH2 0xA3C JUMP JUMPDEST JUMPDEST PUSH1 0x0 PUSH2 0xE6B DUP5 DUP3 DUP6 ADD PUSH2 0xBD7 JUMP JUMPDEST SWAP2 POP POP SWAP3 SWAP2 POP POP JUMP JUMPDEST PUSH2 0xE7D DUP2 PUSH2 0xC2C JUMP JUMPDEST DUP3 MSTORE POP POP JUMP JUMPDEST PUSH1 0x0 PUSH1 0x20 DUP3 ADD SWAP1 POP PUSH2 0xE98 PUSH1 0x0 DUP4 ADD DUP5 PUSH2 0xE74 JUMP JUMPDEST SWAP3 SWAP2 POP POP JUMP JUMPDEST PUSH1 0x0 PUSH1 0x20 DUP3 DUP5 SUB SLT ISZERO PUSH2 0xEB4 JUMPI PUSH2 0xEB3 PUSH2 0xA3C JUMP JUMPDEST JUMPDEST PUSH1 0x0 PUSH2 0xEC2 DUP5 DUP3 DUP6 ADD PUSH2 0xC4D JUMP JUMPDEST SWAP2 POP POP SWAP3 SWAP2 POP POP JUMP JUMPDEST PUSH1 0x0 DUP2 MLOAD SWAP1 POP SWAP2 SWAP1 POP JUMP JUMPDEST PUSH1 0x0 DUP3 DUP3 MSTORE PUSH1 0x20 DUP3 ADD SWAP1 POP SWAP3 SWAP2 POP POP JUMP JUMPDEST PUSH1 0x0 JUMPDEST DUP4 DUP2 LT ISZERO PUSH2 0xF05 JUMPI DUP1 DUP3 ADD MLOAD DUP2 DUP5 ADD MSTORE PUSH1 0x20 DUP2 ADD SWAP1 POP PUSH2 0xEEA JUMP JUMPDEST PUSH1 0x0 DUP5 DUP5 ADD MSTORE POP POP POP POP JUMP JUMPDEST PUSH1 0x0 PUSH2 0xF1C DUP3 PUSH2 0xECB JUMP JUMPDEST PUSH2 0xF26 DUP2 DUP6 PUSH2 0xED6 JUMP JUMPDEST SWAP4 POP PUSH2 0xF36 DUP2 DUP6 PUSH1 0x20 DUP7 ADD PUSH2 0xEE7 JUMP JUMPDEST PUSH2 0xF3F DUP2 PUSH2 0xC6C JUMP JUMPDEST DUP5 ADD SWAP2 POP POP SWAP3 SWAP2 POP POP JUMP JUMPDEST PUSH2 0xF53 DUP2 PUSH2 0xBAE JUMP JUMPDEST DUP3 MSTORE POP POP JUMP JUMPDEST PUSH1 0x0 PUSH1 0xC0 DUP3 ADD SWAP1 POP PUSH2 0xF6E PUSH1 0x0 DUP4 ADD DUP10 PUSH2 0xB64 JUMP JUMPDEST PUSH2 0xF7B PUSH1 0x20 DUP4 ADD DUP9 PUSH2 0xE74 JUMP JUMPDEST DUP2 DUP2 SUB PUSH1 0x40 DUP4 ADD MSTORE PUSH2 0xF8D DUP2 DUP8 PUSH2 0xF11 JUMP JUMPDEST SWAP1 POP DUP2 DUP2 SUB PUSH1 0x60 DUP4 ADD MSTORE PUSH2 0xFA1 DUP2 DUP7 PUSH2 0xF11 JUMP JUMPDEST SWAP1 POP PUSH2 0xFB0 PUSH1 0x80 DUP4 ADD DUP6 PUSH2 0xE74 JUMP JUMPDEST PUSH2 0xFBD PUSH1 0xA0 DUP4 ADD DUP5 PUSH2 0xF4A JUMP JUMPDEST SWAP8 SWAP7 POP POP POP POP POP POP POP JUMP JUMPDEST PUSH32 0x4E487B7100000000000000000000000000000000000000000000000000000000 PUSH1 0x0 MSTORE PUSH1 0x11 PUSH1 0x4 MSTORE PUSH1 0x24 PUSH1 0x0 REVERT JUMPDEST PUSH1 0x0 PUSH2 0x1002 DUP3 PUSH2 0xC2C JUMP JUMPDEST SWAP2 POP PUSH32 0xFFFFFFFFFFFFFFFFFFFFFFFFFFFFFFFFFFFFFFFFFFFFFFFFFFFFFFFFFFFFFFFF DUP3 SUB PUSH2 0x1034 JUMPI PUSH2 0x1033 PUSH2 0xFC8 JUMP JUMPDEST JUMPDEST PUSH1 0x1 DUP3 ADD SWAP1 POP SWAP2 SWAP1 POP JUMP JUMPDEST PUSH32 0x4E487B7100000000000000000000000000000000000000000000000000000000 PUSH1 0x0 MSTORE PUSH1 0x22 PUSH1 0x4 MSTORE PUSH1 0x24 PUSH1 0x0 REVERT JUMPDEST PUSH1 0x0 PUSH1 0x2 DUP3 DIV SWAP1 POP PUSH1 0x1 DUP3 AND DUP1 PUSH2 0x1086 JUMPI PUSH1 0x7F DUP3 AND SWAP2 POP JUMPDEST PUSH1 0x20 DUP3 LT DUP2 SUB PUSH2 0x1099 JUMPI PUSH2 0x1098 PUSH2 0x103F JUMP JUMPDEST JUMPDEST POP SWAP2 SWAP1 POP JUMP JUMPDEST PUSH1 0x0 DUP2 SWAP1 POP DUP2 PUSH1 0x0 MSTORE PUSH1 0x20 PUSH1 0x0 KECCAK256 SWAP1 POP SWAP2 SWAP1 POP JUMP JUMPDEST PUSH1 0x0 PUSH1 0x20 PUSH1 0x1F DUP4 ADD DIV SWAP1 POP SWAP2 SWAP1 POP JUMP JUMPDEST PUSH1 0x0 DUP3 DUP3 SHL SWAP1 POP SWAP3 SWAP2 POP POP JUMP JUMPDEST PUSH1 0x0 PUSH1 0x8 DUP4 MUL PUSH2 0x1101 PUSH32 0xFFFFFFFFFFFFFFFFFFFFFFFFFFFFFFFFFFFFFFFFFFFFFFFFFFFFFFFFFFFFFFFF DUP3 PUSH2 0x10C4 JUMP JUMPDEST PUSH2 0x110B DUP7 DUP4 PUSH2 0x10C4 JUMP JUMPDEST SWAP6 POP DUP1 NOT DUP5 AND SWAP4 POP DUP1 DUP7 AND DUP5 OR SWAP3 POP POP POP SWAP4 SWAP3 POP POP POP JUMP JUMPDEST PUSH1 0x0 DUP2 SWAP1 POP SWAP2 SWAP1 POP JUMP JUMPDEST PUSH1 0x0 PUSH2 0x1148 PUSH2 0x1143 PUSH2 0x113E DUP5 PUSH2 0xC2C JUMP JUMPDEST PUSH2 0x1123 JUMP JUMPDEST PUSH2 0xC2C JUMP JUMPDEST SWAP1 POP SWAP2 SWAP1 POP JUMP JUMPDEST PUSH1 0x0 DUP2 SWAP1 POP SWAP2 SWAP1 POP JUMP JUMPDEST PUSH2 0x1162 DUP4 PUSH2 0x112D JUMP JUMPDEST PUSH2 0x1176 PUSH2 0x116E DUP3 PUSH2 0x114F JUMP JUMPDEST DUP5 DUP5 SLOAD PUSH2 0x10D1 JUMP JUMPDEST DUP3 SSTORE POP POP POP POP JUMP JUMPDEST PUSH1 0x0 SWAP1 JUMP JUMPDEST PUSH2 0x118B PUSH2 0x117E JUMP JUMPDEST PUSH2 0x1196 DUP2 DUP5 DUP5 PUSH2 0x1159 JUMP JUMPDEST POP POP POP JUMP JUMPDEST JUMPDEST DUP2 DUP2 LT ISZERO PUSH2 0x11BA JUMPI PUSH2 0x11AF PUSH1 0x0 DUP3 PUSH2 0x1183 JUMP JUMPDEST PUSH1 0x1 DUP2 ADD SWAP1 POP PUSH2 0x119C JUMP JUMPDEST POP POP JUMP JUMPDEST PUSH1 0x1F DUP3 GT ISZERO PUSH2 0x11FF JUMPI PUSH2 0x11D0 DUP2 PUSH2 0x109F JUMP JUMPDEST PUSH2 0x11D9 DUP5 PUSH2 0x10B4 JUMP JUMPDEST DUP2 ADD PUSH1 0x20 DUP6 LT ISZERO PUSH2 0x11E8 JUMPI DUP2 SWAP1 POP JUMPDEST PUSH2 0x11FC PUSH2 0x11F4 DUP6 PUSH2 0x10B4 JUMP JUMPDEST DUP4 ADD DUP3 PUSH2 0x119B JUMP JUMPDEST POP POP JUMPDEST POP POP POP JUMP JUMPDEST PUSH1 0x0 DUP3 DUP3 SHR SWAP1 POP SWAP3 SWAP2 POP POP JUMP JUMPDEST PUSH1 0x0 PUSH2 0x1222 PUSH1 0x0 NOT DUP5 PUSH1 0x8 MUL PUSH2 0x1204 JUMP JUMPDEST NOT DUP1 DUP4 AND SWAP2 POP POP SWAP3 SWAP2 POP POP JUMP JUMPDEST PUSH1 0x0 PUSH2 0x123B DUP4 DUP4 PUSH2 0x1211 JUMP JUMPDEST SWAP2 POP DUP3 PUSH1 0x2 MUL DUP3 OR SWAP1 POP SWAP3 SWAP2 POP POP JUMP JUMPDEST PUSH2 0x1254 DUP3 PUSH2 0xECB JUMP JUMPDEST PUSH8 0xFFFFFFFFFFFFFFFF DUP2 GT ISZERO PUSH2 0x126D JUMPI PUSH2 0x126C PUSH2 0xC7D JUMP JUMPDEST JUMPDEST PUSH2 0x1277 DUP3 SLOAD PUSH2 0x106E JUMP JUMPDEST PUSH2 0x1282 DUP3 DUP3 DUP6 PUSH2 0x11BE JUMP JUMPDEST PUSH1 0x0 PUSH1 0x20 SWAP1 POP PUSH1 0x1F DUP4 GT PUSH1 0x1 DUP2 EQ PUSH2 0x12B5 JUMPI PUSH1 0x0 DUP5 ISZERO PUSH2 0x12A3 JUMPI DUP3 DUP8 ADD MLOAD SWAP1 POP JUMPDEST PUSH2 0x12AD DUP6 DUP3 PUSH2 0x122F JUMP JUMPDEST DUP7 SSTORE POP PUSH2 0x1315 JUMP JUMPDEST PUSH1 0x1F NOT DUP5 AND PUSH2 0x12C3 DUP7 PUSH2 0x109F JUMP JUMPDEST PUSH1 0x0 JUMPDEST DUP3 DUP2 LT ISZERO PUSH2 0x12EB JUMPI DUP5 DUP10 ADD MLOAD DUP3 SSTORE PUSH1 0x1 DUP3 ADD SWAP2 POP PUSH1 0x20 DUP6 ADD SWAP5 POP PUSH1 0x20 DUP2 ADD SWAP1 POP PUSH2 0x12C6 JUMP JUMPDEST DUP7 DUP4 LT ISZERO PUSH2 0x1308 JUMPI DUP5 DUP10 ADD MLOAD PUSH2 0x1304 PUSH1 0x1F DUP10 AND DUP3 PUSH2 0x1211 JUMP JUMPDEST DUP4 SSTORE POP JUMPDEST PUSH1 0x1 PUSH1 0x2 DUP9 MUL ADD DUP9 SSTORE POP POP POP JUMPDEST POP POP POP POP POP POP JUMP JUMPDEST PUSH1 0x0 PUSH1 0xE0 DUP3 ADD SWAP1 POP PUSH2 0x1332 PUSH1 0x0 DUP4 ADD DUP11 PUSH2 0xE74 JUMP JUMPDEST PUSH2 0x133F PUSH1 0x20 DUP4 ADD DUP10 PUSH2 0xB64 JUMP JUMPDEST PUSH2 0x134C PUSH1 0x40 DUP4 ADD DUP9 PUSH2 0xE74 JUMP JUMPDEST DUP2 DUP2 SUB PUSH1 0x60 DUP4 ADD MSTORE PUSH2 0x135E DUP2 DUP8 PUSH2 0xF11 JUMP JUMPDEST SWAP1 POP DUP2 DUP2 SUB PUSH1 0x80 DUP4 ADD MSTORE PUSH2 0x1372 DUP2 DUP7 PUSH2 0xF11 JUMP JUMPDEST SWAP1 POP PUSH2 0x1381 PUSH1 0xA0 DUP4 ADD DUP6 PUSH2 0xE74 JUMP JUMPDEST PUSH2 0x138E PUSH1 0xC0 DUP4 ADD DUP5 PUSH2 0xF4A JUMP JUMPDEST SWAP9 SWAP8 POP POP POP POP POP POP POP POP JUMP JUMPDEST PUSH1 0x0 PUSH1 0x40 DUP3 ADD SWAP1 POP PUSH2 0x13AF PUSH1 0x0 DUP4 ADD DUP6 PUSH2 0xF4A JUMP JUMPDEST PUSH2 0x13BC PUSH1 0x20 DUP4 ADD DUP5 PUSH2 0xB64 JUMP JUMPDEST SWAP4 SWAP3 POP POP POP JUMP INVALID LOG2 PUSH5 0x6970667358 0x22 SLT KECCAK256 0xE8 SELFDESTRUCT SWAP4 0xEE 0xCF PUSH11 0xDB30755A0EBEB0A3A39E62 0xDC 0xAC SWAP16 ADDMOD BALANCE 0xA7 SWAP5 0xB8 CHAINID 0xBE CALLER ORIGIN PUSH2 0xEF88 PUSH5 0x736F6C6343 STOP ADDMOD EQ STOP CALLER "},"methodIdentifiers":{"DEFAULT_ADMIN_ROLE()":"a217fddf","HOSPITAL_ROLE()":"f6ba6678","getRoleAdmin(bytes32)":"248a9ca3","grantHospitalRole(address)":"7ee756f2","grantRole(bytes32,address)":"2f2ff15d","hasRole(bytes32,address)":"91d14854","logReport(bytes32,uint256,string,string)":"32962e86","renounceRole(bytes32,address)":"36568abe","reportCounter()":"b9bc38f2","reports(uint256)":"c942adf7","revokeRole(bytes32,address)":"d547741f","supportsInterface(bytes4)":"01ffc9a7"}}}}}